{
  "contractName": "Tweeter",
  "abi": [
    {
      "inputs": [
        {
          "internalType": "address",
          "name": "ensAddress",
          "type": "address"
        }
      ],
      "stateMutability": "nonpayable",
      "type": "constructor"
    },
    {
      "anonymous": false,
      "inputs": [
        {
          "indexed": false,
          "internalType": "uint256",
          "name": "id",
          "type": "uint256"
        },
        {
          "indexed": false,
          "internalType": "string",
          "name": "content",
          "type": "string"
        },
        {
          "indexed": true,
          "internalType": "address",
          "name": "from",
          "type": "address"
        },
        {
          "indexed": true,
          "internalType": "address",
          "name": "to",
          "type": "address"
        },
        {
          "indexed": false,
          "internalType": "uint256",
          "name": "createdAt",
          "type": "uint256"
        }
      ],
      "name": "MessageSent",
      "type": "event"
    },
    {
      "anonymous": false,
      "inputs": [
        {
          "indexed": false,
          "internalType": "uint256",
          "name": "id",
          "type": "uint256"
        },
        {
          "indexed": true,
          "internalType": "address",
          "name": "author",
          "type": "address"
        },
        {
          "indexed": false,
          "internalType": "string",
          "name": "content",
          "type": "string"
        },
        {
          "indexed": false,
          "internalType": "uint256",
          "name": "createdAt",
          "type": "uint256"
        }
      ],
      "name": "TweetSent",
      "type": "event"
    },
    {
      "inputs": [],
      "name": "ens",
      "outputs": [
        {
          "internalType": "contract ENS",
          "name": "",
          "type": "address"
        }
      ],
      "stateMutability": "view",
      "type": "function"
    },
    {
      "inputs": [
        {
          "internalType": "address",
          "name": "",
          "type": "address"
        },
        {
          "internalType": "uint256",
          "name": "",
          "type": "uint256"
        }
      ],
      "name": "following",
      "outputs": [
        {
          "internalType": "address",
          "name": "",
          "type": "address"
        }
      ],
      "stateMutability": "view",
      "type": "function"
    },
    {
      "inputs": [
        {
          "internalType": "bytes32",
          "name": "_node",
          "type": "bytes32"
        }
      ],
      "name": "resolve",
      "outputs": [
        {
          "internalType": "address",
          "name": "",
          "type": "address"
        }
      ],
      "stateMutability": "view",
      "type": "function"
    },
    {
      "inputs": [
        {
          "internalType": "address",
          "name": "_authorAddress",
          "type": "address"
        }
      ],
      "name": "reverseResolve",
      "outputs": [
        {
          "internalType": "string",
          "name": "",
          "type": "string"
        }
      ],
      "stateMutability": "pure",
      "type": "function"
    },
    {
      "inputs": [
        {
          "internalType": "string",
          "name": "_content",
          "type": "string"
        }
      ],
      "name": "tweet",
      "outputs": [],
      "stateMutability": "nonpayable",
      "type": "function"
    },
    {
      "inputs": [
        {
          "internalType": "address",
          "name": "_from",
          "type": "address"
        },
        {
          "internalType": "string",
          "name": "_content",
          "type": "string"
        }
      ],
      "name": "tweetFrom",
      "outputs": [],
      "stateMutability": "nonpayable",
      "type": "function"
    },
    {
      "inputs": [
        {
          "internalType": "string",
          "name": "_content",
          "type": "string"
        },
        {
          "internalType": "address",
          "name": "_to",
          "type": "address"
        }
      ],
      "name": "sendMessage",
      "outputs": [],
      "stateMutability": "nonpayable",
      "type": "function"
    },
    {
      "inputs": [
        {
          "internalType": "string",
          "name": "_content",
          "type": "string"
        },
        {
          "internalType": "address",
          "name": "_from",
          "type": "address"
        },
        {
          "internalType": "address",
          "name": "_to",
          "type": "address"
        }
      ],
      "name": "sendMessageFrom",
      "outputs": [],
      "stateMutability": "nonpayable",
      "type": "function"
    },
    {
      "inputs": [
        {
          "internalType": "address",
          "name": "_followed",
          "type": "address"
        }
      ],
      "name": "follow",
      "outputs": [],
      "stateMutability": "nonpayable",
      "type": "function"
    },
    {
      "inputs": [
        {
          "internalType": "address",
          "name": "_operator",
          "type": "address"
        }
      ],
      "name": "allow",
      "outputs": [],
      "stateMutability": "nonpayable",
      "type": "function"
    },
    {
      "inputs": [
        {
          "internalType": "address",
          "name": "_operator",
          "type": "address"
        }
      ],
      "name": "disallow",
      "outputs": [],
      "stateMutability": "nonpayable",
      "type": "function"
    },
    {
      "inputs": [
        {
          "internalType": "uint256",
          "name": "count",
          "type": "uint256"
        }
      ],
      "name": "getLatestTweets",
      "outputs": [
        {
          "components": [
            {
              "internalType": "uint256",
              "name": "id",
              "type": "uint256"
            },
            {
              "internalType": "address",
              "name": "authorAddress",
              "type": "address"
            },
            {
              "internalType": "string",
              "name": "authorName",
              "type": "string"
            },
            {
              "internalType": "string",
              "name": "content",
              "type": "string"
            },
            {
              "internalType": "uint256",
              "name": "createdAt",
              "type": "uint256"
            }
          ],
          "internalType": "struct Tweeter.Tweet[]",
          "name": "",
          "type": "tuple[]"
        }
      ],
      "stateMutability": "view",
      "type": "function"
    },
    {
      "inputs": [
        {
          "internalType": "address",
          "name": "_user",
          "type": "address"
        },
        {
          "internalType": "uint256",
          "name": "count",
          "type": "uint256"
        }
      ],
      "name": "getTweetsOf",
      "outputs": [
        {
          "components": [
            {
              "internalType": "uint256",
              "name": "id",
              "type": "uint256"
            },
            {
              "internalType": "address",
              "name": "authorAddress",
              "type": "address"
            },
            {
              "internalType": "string",
              "name": "authorName",
              "type": "string"
            },
            {
              "internalType": "string",
              "name": "content",
              "type": "string"
            },
            {
              "internalType": "uint256",
              "name": "createdAt",
              "type": "uint256"
            }
          ],
          "internalType": "struct Tweeter.Tweet[]",
          "name": "",
          "type": "tuple[]"
        }
      ],
      "stateMutability": "view",
      "type": "function"
    }
  ],
  "bytecode": "0x60806040523480156200001157600080fd5b506040516200202a3803806200202a8339818101604052810190620000379190620000e9565b80600760006101000a81548173ffffffffffffffffffffffffffffffffffffffff021916908373ffffffffffffffffffffffffffffffffffffffff160217905550506200011b565b600080fd5b600073ffffffffffffffffffffffffffffffffffffffff82169050919050565b6000620000b18262000084565b9050919050565b620000c381620000a4565b8114620000cf57600080fd5b50565b600081519050620000e381620000b8565b92915050565b6000602082840312156200010257620001016200007f565b5b60006200011284828501620000d2565b91505092915050565b611eff806200012b6000396000f3fe608060405234801561001057600080fd5b50600436106100cf5760003560e01c80639139cda51161008c578063c48d6d5e11610066578063c48d6d5e14610236578063c6bc463c14610252578063fb46d4c51461026e578063ff9913e81461028a576100cf565b80639139cda5146101ba5780639af8b7aa146101ea578063a9ed9cb81461021a576100cf565b8063179a21e8146100d45780633f15457f146100f05780634dbf27cc1461010e5780634dc0a6871461012a5780635b4d42141461015a5780635c23bdf51461018a575b600080fd5b6100ee60048036038101906100e9919061149e565b6102a6565b005b6100f86102fb565b6040516101059190611571565b60405180910390f35b6101286004803603810190610123919061158c565b610321565b005b610144600480360381019061013f91906115ef565b6103c4565b6040516101519190611812565b60405180910390f35b610174600480360381019061016f9190611834565b610670565b6040516101819190611812565b60405180910390f35b6101a4600480360381019061019f91906118aa565b610984565b6040516101b191906118e6565b60405180910390f35b6101d460048036038101906101cf9190611834565b610aa7565b6040516101e191906118e6565b60405180910390f35b61020460048036038101906101ff919061158c565b610af5565b604051610211919061194b565b60405180910390f35b610234600480360381019061022f919061158c565b610b34565b005b610250600480360381019061024b919061196d565b610bcc565b005b61026c600480360381019061026791906119cd565b610c20565b005b61028860048036038101906102839190611a2d565b610c73565b005b6102a4600480360381019061029f919061158c565b610cc5565b005b6102f584848080601f016020809104026020016040519081016040528093929190818152602001838380828437600081840152601f19601f820116905080830192505050505050508383610d5d565b50505050565b600760009054906101000a900473ffffffffffffffffffffffffffffffffffffffff1681565b600360003373ffffffffffffffffffffffffffffffffffffffff1673ffffffffffffffffffffffffffffffffffffffff168152602001908152602001600020819080600181540180825580915050600190039060005260206000200160009091909190916101000a81548173ffffffffffffffffffffffffffffffffffffffff021916908373ffffffffffffffffffffffffffffffffffffffff16021790555050565b60606000821180156103d857506005548211155b610417576040517f08c379a000000000000000000000000000000000000000000000000000000000815260040161040e90611aec565b60405180910390fd5b60008267ffffffffffffffff81111561043357610432611b0c565b5b60405190808252806020026020018201604052801561046c57816020015b6104596112e9565b8152602001906001900390816104515790505b509050600080846005546104809190611b6a565b90505b60055481101561066557600080600083815260200190815260200160002090506040518060a00160405280826000015481526020018260010160009054906101000a900473ffffffffffffffffffffffffffffffffffffffff1673ffffffffffffffffffffffffffffffffffffffff16815260200182600201805461050790611bcd565b80601f016020809104026020016040519081016040528092919081815260200182805461053390611bcd565b80156105805780601f1061055557610100808354040283529160200191610580565b820191906000526020600020905b81548152906001019060200180831161056357829003601f168201915b5050505050815260200182600301805461059990611bcd565b80601f01602080910402602001604051908101604052809291908181526020018280546105c590611bcd565b80156106125780601f106105e757610100808354040283529160200191610612565b820191906000526020600020905b8154815290600101906020018083116105f557829003601f168201915b50505050508152602001826004015481525084848151811061063757610636611bff565b5b602002602001018190525060018361064f9190611c2e565b925050808061065d90611c84565b915050610483565b508192505050919050565b60606000600160008573ffffffffffffffffffffffffffffffffffffffff1673ffffffffffffffffffffffffffffffffffffffff16815260200190815260200160002090506000831180156106c9575080805490508311155b610708576040517f08c379a00000000000000000000000000000000000000000000000000000000081526004016106ff90611d19565b60405180910390fd5b60008367ffffffffffffffff81111561072457610723611b0c565b5b60405190808252806020026020018201604052801561075d57816020015b61074a6112e9565b8152602001906001900390816107425790505b5090506000808584805490506107739190611b6a565b90505b838054905081101561097757600080600086848154811061079a57610799611bff565b5b9060005260206000200154815260200190815260200160002090506040518060a00160405280826000015481526020018260010160009054906101000a900473ffffffffffffffffffffffffffffffffffffffff1673ffffffffffffffffffffffffffffffffffffffff16815260200182600201805461081990611bcd565b80601f016020809104026020016040519081016040528092919081815260200182805461084590611bcd565b80156108925780601f1061086757610100808354040283529160200191610892565b820191906000526020600020905b81548152906001019060200180831161087557829003601f168201915b505050505081526020018260030180546108ab90611bcd565b80601f01602080910402602001604051908101604052809291908181526020018280546108d790611bcd565b80156109245780601f106108f957610100808354040283529160200191610924565b820191906000526020600020905b81548152906001019060200180831161090757829003601f168201915b50505050508152602001826004015481525084848151811061094957610948611bff565b5b60200260200101819052506001836109619190611c2e565b925050808061096f90611c84565b915050610776565b5081935050505092915050565b600080600760009054906101000a900473ffffffffffffffffffffffffffffffffffffffff1673ffffffffffffffffffffffffffffffffffffffff16630178b8bf846040518263ffffffff1660e01b81526004016109e29190611d48565b602060405180830381865afa1580156109ff573d6000803e3d6000fd5b505050506040513d601f19601f82011682018060405250810190610a239190611da1565b90508073ffffffffffffffffffffffffffffffffffffffff16633b3b57de846040518263ffffffff1660e01b8152600401610a5e9190611d48565b602060405180830381865afa158015610a7b573d6000803e3d6000fd5b505050506040513d601f19601f82011682018060405250810190610a9f9190611de3565b915050919050565b60036020528160005260406000208181548110610ac357600080fd5b906000526020600020016000915091509054906101000a900473ffffffffffffffffffffffffffffffffffffffff1681565b60606040518060400160405280600b81526020017f617574686f72206e616d650000000000000000000000000000000000000000008152509050919050565b6000600460003373ffffffffffffffffffffffffffffffffffffffff1673ffffffffffffffffffffffffffffffffffffffff16815260200190815260200160002060008373ffffffffffffffffffffffffffffffffffffffff1673ffffffffffffffffffffffffffffffffffffffff16815260200190815260200160002060006101000a81548160ff02191690831515021790555050565b610c1b83838080601f016020809104026020016040519081016040528093929190818152602001838380828437600081840152601f19601f820116905080830192505050505050503383610d5d565b505050565b610c6e8383838080601f016020809104026020016040519081016040528093929190818152602001838380828437600081840152601f19601f82011690508083019250505050505050611046565b505050565b610cc13383838080601f016020809104026020016040519081016040528093929190818152602001838380828437600081840152601f19601f82011690508083019250505050505050611046565b5050565b6001600460003373ffffffffffffffffffffffffffffffffffffffff1673ffffffffffffffffffffffffffffffffffffffff16815260200190815260200160002060008373ffffffffffffffffffffffffffffffffffffffff1673ffffffffffffffffffffffffffffffffffffffff16815260200190815260200160002060006101000a81548160ff02191690831515021790555050565b8160011515600460008373ffffffffffffffffffffffffffffffffffffffff1673ffffffffffffffffffffffffffffffffffffffff16815260200190815260200160002060003373ffffffffffffffffffffffffffffffffffffffff1673ffffffffffffffffffffffffffffffffffffffff16815260200190815260200160002060009054906101000a900460ff16151514610e2e576040517f08c379a0000000000000000000000000000000000000000000000000000000008152600401610e2590611e5c565b60405180910390fd5b60008273ffffffffffffffffffffffffffffffffffffffff168473ffffffffffffffffffffffffffffffffffffffff16610e689190611c2e565b9050600260008281526020019081526020016000206040518060a0016040528060065481526020018781526020018673ffffffffffffffffffffffffffffffffffffffff1681526020018573ffffffffffffffffffffffffffffffffffffffff168152602001428152509080600181540180825580915050600190039060005260206000209060050201600090919091909150600082015181600001556020820151816001019080519060200190610f2192919061132e565b5060408201518160020160006101000a81548173ffffffffffffffffffffffffffffffffffffffff021916908373ffffffffffffffffffffffffffffffffffffffff16021790555060608201518160030160006101000a81548173ffffffffffffffffffffffffffffffffffffffff021916908373ffffffffffffffffffffffffffffffffffffffff1602179055506080820151816004015550508273ffffffffffffffffffffffffffffffffffffffff168473ffffffffffffffffffffffffffffffffffffffff167f053227a5bdcc96607ea58ea40dd04c9394ddebceb1cd539ad1289d8b074bc4eb600654884260405161101f93929190611e8b565b60405180910390a36006600081548092919061103a90611c84565b91905055505050505050565b8160011515600460008373ffffffffffffffffffffffffffffffffffffffff1673ffffffffffffffffffffffffffffffffffffffff16815260200190815260200160002060003373ffffffffffffffffffffffffffffffffffffffff1673ffffffffffffffffffffffffffffffffffffffff16815260200190815260200160002060009054906101000a900460ff16151514611117576040517f08c379a000000000000000000000000000000000000000000000000000000000815260040161110e90611e5c565b60405180910390fd5b600061112284610af5565b90506040518060a0016040528060055481526020018573ffffffffffffffffffffffffffffffffffffffff1681526020018281526020018481526020014281525060008060055481526020019081526020016000206000820151816000015560208201518160010160006101000a81548173ffffffffffffffffffffffffffffffffffffffff021916908373ffffffffffffffffffffffffffffffffffffffff16021790555060408201518160020190805190602001906111e492919061132e565b50606082015181600301908051906020019061120192919061132e565b5060808201518160040155905050600160008573ffffffffffffffffffffffffffffffffffffffff1673ffffffffffffffffffffffffffffffffffffffff16815260200190815260200160002060055490806001815401808255809150506001900390600052602060002001600090919091909150558373ffffffffffffffffffffffffffffffffffffffff167f8d6b17b300471dd2e4fef05e2e70f50c236372b9a4aaf37cdb52644d99bc21a760055485426040516112c393929190611e8b565b60405180910390a2600560008154809291906112de90611c84565b919050555050505050565b6040518060a0016040528060008152602001600073ffffffffffffffffffffffffffffffffffffffff1681526020016060815260200160608152602001600081525090565b82805461133a90611bcd565b90600052602060002090601f01602090048101928261135c57600085556113a3565b82601f1061137557805160ff19168380011785556113a3565b828001600101855582156113a3579182015b828111156113a2578251825591602001919060010190611387565b5b5090506113b091906113b4565b5090565b5b808211156113cd5760008160009055506001016113b5565b5090565b600080fd5b600080fd5b600080fd5b600080fd5b600080fd5b60008083601f840112611400576113ff6113db565b5b8235905067ffffffffffffffff81111561141d5761141c6113e0565b5b602083019150836001820283011115611439576114386113e5565b5b9250929050565b600073ffffffffffffffffffffffffffffffffffffffff82169050919050565b600061146b82611440565b9050919050565b61147b81611460565b811461148657600080fd5b50565b60008135905061149881611472565b92915050565b600080600080606085870312156114b8576114b76113d1565b5b600085013567ffffffffffffffff8111156114d6576114d56113d6565b5b6114e2878288016113ea565b945094505060206114f587828801611489565b925050604061150687828801611489565b91505092959194509250565b6000819050919050565b600061153761153261152d84611440565b611512565b611440565b9050919050565b60006115498261151c565b9050919050565b600061155b8261153e565b9050919050565b61156b81611550565b82525050565b60006020820190506115866000830184611562565b92915050565b6000602082840312156115a2576115a16113d1565b5b60006115b084828501611489565b91505092915050565b6000819050919050565b6115cc816115b9565b81146115d757600080fd5b50565b6000813590506115e9816115c3565b92915050565b600060208284031215611605576116046113d1565b5b6000611613848285016115da565b91505092915050565b600081519050919050565b600082825260208201905092915050565b6000819050602082019050919050565b611651816115b9565b82525050565b61166081611460565b82525050565b600081519050919050565b600082825260208201905092915050565b60005b838110156116a0578082015181840152602081019050611685565b838111156116af576000848401525b50505050565b6000601f19601f8301169050919050565b60006116d182611666565b6116db8185611671565b93506116eb818560208601611682565b6116f4816116b5565b840191505092915050565b600060a0830160008301516117176000860182611648565b50602083015161172a6020860182611657565b506040830151848203604086015261174282826116c6565b9150506060830151848203606086015261175c82826116c6565b91505060808301516117716080860182611648565b508091505092915050565b600061178883836116ff565b905092915050565b6000602082019050919050565b60006117a88261161c565b6117b28185611627565b9350836020820285016117c485611638565b8060005b8581101561180057848403895281516117e1858261177c565b94506117ec83611790565b925060208a019950506001810190506117c8565b50829750879550505050505092915050565b6000602082019050818103600083015261182c818461179d565b905092915050565b6000806040838503121561184b5761184a6113d1565b5b600061185985828601611489565b925050602061186a858286016115da565b9150509250929050565b6000819050919050565b61188781611874565b811461189257600080fd5b50565b6000813590506118a48161187e565b92915050565b6000602082840312156118c0576118bf6113d1565b5b60006118ce84828501611895565b91505092915050565b6118e081611460565b82525050565b60006020820190506118fb60008301846118d7565b92915050565b600082825260208201905092915050565b600061191d82611666565b6119278185611901565b9350611937818560208601611682565b611940816116b5565b840191505092915050565b600060208201905081810360008301526119658184611912565b905092915050565b600080600060408486031215611986576119856113d1565b5b600084013567ffffffffffffffff8111156119a4576119a36113d6565b5b6119b0868287016113ea565b935093505060206119c386828701611489565b9150509250925092565b6000806000604084860312156119e6576119e56113d1565b5b60006119f486828701611489565b935050602084013567ffffffffffffffff811115611a1557611a146113d6565b5b611a21868287016113ea565b92509250509250925092565b60008060208385031215611a4457611a436113d1565b5b600083013567ffffffffffffffff811115611a6257611a616113d6565b5b611a6e858286016113ea565b92509250509250929050565b7f4e6f7420656e6f756768206f7220746f6f206d616e792074776565747320746f60008201527f2072657475726e00000000000000000000000000000000000000000000000000602082015250565b6000611ad6602783611901565b9150611ae182611a7a565b604082019050919050565b60006020820190508181036000830152611b0581611ac9565b9050919050565b7f4e487b7100000000000000000000000000000000000000000000000000000000600052604160045260246000fd5b7f4e487b7100000000000000000000000000000000000000000000000000000000600052601160045260246000fd5b6000611b75826115b9565b9150611b80836115b9565b925082821015611b9357611b92611b3b565b5b828203905092915050565b7f4e487b7100000000000000000000000000000000000000000000000000000000600052602260045260246000fd5b60006002820490506001821680611be557607f821691505b60208210811415611bf957611bf8611b9e565b5b50919050565b7f4e487b7100000000000000000000000000000000000000000000000000000000600052603260045260246000fd5b6000611c39826115b9565b9150611c44836115b9565b9250827fffffffffffffffffffffffffffffffffffffffffffffffffffffffffffffffff03821115611c7957611c78611b3b565b5b828201905092915050565b6000611c8f826115b9565b91507fffffffffffffffffffffffffffffffffffffffffffffffffffffffffffffffff821415611cc257611cc1611b3b565b5b600182019050919050565b7f546f6f20666577206f72206d616e792074776565747320746f2072657475726e600082015250565b6000611d03602083611901565b9150611d0e82611ccd565b602082019050919050565b60006020820190508181036000830152611d3281611cf6565b9050919050565b611d4281611874565b82525050565b6000602082019050611d5d6000830184611d39565b92915050565b6000611d6e82611460565b9050919050565b611d7e81611d63565b8114611d8957600080fd5b50565b600081519050611d9b81611d75565b92915050565b600060208284031215611db757611db66113d1565b5b6000611dc584828501611d8c565b91505092915050565b600081519050611ddd81611472565b92915050565b600060208284031215611df957611df86113d1565b5b6000611e0784828501611dce565b91505092915050565b7f4f70657261746f72206e6f7420617574686f72697a6564000000000000000000600082015250565b6000611e46601783611901565b9150611e5182611e10565b602082019050919050565b60006020820190508181036000830152611e7581611e39565b9050919050565b611e85816115b9565b82525050565b6000606082019050611ea06000830186611e7c565b8181036020830152611eb28185611912565b9050611ec16040830184611e7c565b94935050505056fea2646970667358221220ec565ffd59fe32d9cf27edefc93bc2c44032de3d832259692aea54b018a7a59b64736f6c634300080b0033",
  "immutableReferences": {},
  "source": "// SPDX-License-Identifier: MIT\npragma solidity ^0.8.0;\n\nabstract contract Resolver {\n    function addr(bytes32 node) external view virtual returns (address);\n}\n\nabstract contract ENS {\n    function resolver(bytes32 node) external view virtual returns (Resolver);\n}\n\ncontract Tweeter {\n    struct Tweet {\n        uint256 id;\n        address authorAddress;\n        string authorName;\n        string content;\n        uint256 createdAt;\n    }\n\n    struct Message {\n        uint256 id;\n        string content;\n        address from;\n        address to;\n        uint256 createdAt;\n    }\n\n    mapping(uint256 => Tweet) private tweets;\n    mapping(address => uint256[]) private tweetsOf;\n    mapping(uint256 => Message[]) private conversations;\n    mapping(address => address[]) public following;\n    mapping(address => mapping(address => bool)) private operators;\n    uint256 private nextTweetId;\n    uint256 private nextMessageId;\n    ENS public ens;\n\n    event TweetSent(\n        uint256 id,\n        address indexed author,\n        string content,\n        uint256 createdAt\n    );\n\n    event MessageSent(\n        uint256 id,\n        string content,\n        address indexed from,\n        address indexed to,\n        uint256 createdAt\n    );\n\n    constructor(address ensAddress) {\n        ens = ENS(ensAddress);\n    }\n\n    function resolve(bytes32 _node) public view returns (address) {\n        Resolver resolver = ens.resolver(_node);\n        return resolver.addr(_node);\n    }\n\n    function reverseResolve(address _authorAddress)\n        public\n        pure\n        returns (string memory)\n    {\n        return \"author name\";\n    }\n\n    function tweet(string calldata _content) external {\n        _tweet(msg.sender, _content);\n    }\n\n    function tweetFrom(address _from, string calldata _content) external {\n        _tweet(_from, _content);\n    }\n\n    function sendMessage(string calldata _content, address _to) external {\n        _sendMessage(_content, msg.sender, _to);\n    }\n\n    function sendMessageFrom(\n        string calldata _content,\n        address _from,\n        address _to\n    ) external {\n        _sendMessage(_content, _from, _to);\n    }\n\n    function follow(address _followed) external {\n        following[msg.sender].push(_followed);\n    }\n\n    function allow(address _operator) external {\n        operators[msg.sender][_operator] = true;\n    }\n\n    function disallow(address _operator) external {\n        operators[msg.sender][_operator] = false;\n    }\n\n    function getLatestTweets(uint256 count)\n        external\n        view\n        returns (Tweet[] memory)\n    {\n        require(\n            count > 0 && count <= nextTweetId,\n            \"Not enough or too many tweets to return\"\n        );\n        Tweet[] memory _tweets = new Tweet[](count);\n        uint256 j;\n        for (uint256 i = nextTweetId - count; i < nextTweetId; i++) {\n            Tweet storage _tweet = tweets[i];\n            _tweets[j] = Tweet(\n                _tweet.id,\n                _tweet.authorAddress,\n                _tweet.authorName,\n                _tweet.content,\n                _tweet.createdAt\n            );\n            j += 1;\n        }\n        return _tweets;\n    }\n\n    function getTweetsOf(address _user, uint256 count)\n        external\n        view\n        returns (Tweet[] memory)\n    {\n        uint256[] storage tweetIds = tweetsOf[_user];\n        require(\n            count > 0 && count <= tweetIds.length,\n            \"Too few or many tweets to return\"\n        );\n        Tweet[] memory _tweets = new Tweet[](count);\n        uint256 j;\n        for (uint256 i = tweetIds.length - count; i < tweetIds.length; i++) {\n            Tweet storage _tweet = tweets[tweetIds[i]];\n            _tweets[j] = Tweet(\n                _tweet.id,\n                _tweet.authorAddress,\n                _tweet.authorName,\n                _tweet.content,\n                _tweet.createdAt\n            );\n            j += 1;\n        }\n        return _tweets;\n    }\n\n    function _tweet(address _authorAddress, string memory _content)\n        internal\n        canOperate(_authorAddress)\n    {\n        string memory authorName = reverseResolve(_authorAddress);\n        tweets[nextTweetId] = Tweet(\n            nextTweetId,\n            _authorAddress,\n            authorName,\n            _content,\n            block.timestamp\n        );\n        tweetsOf[_authorAddress].push(nextTweetId);\n        emit TweetSent(nextTweetId, _authorAddress, _content, block.timestamp);\n        nextTweetId++;\n    }\n\n    function _sendMessage(\n        string memory _content,\n        address _from,\n        address _to\n    ) internal canOperate(_from) {\n        uint256 conversationId = uint256(uint160(_from)) +\n            uint256(uint160(_to));\n        conversations[conversationId].push(\n            Message(nextMessageId, _content, _from, _to, block.timestamp)\n        );\n        emit MessageSent(nextMessageId, _content, _from, _to, block.timestamp);\n        nextMessageId++;\n    }\n\n    modifier canOperate(address _from) {\n        require(\n            operators[_from][msg.sender] == true,\n            \"Operator not authorized\"\n        );\n        _;\n    }\n}\n",
  "sourcePath": "/Users/jasonha/Desktop/demos/smart_contracts/tweeter/smart_contract/contracts/Tweeter.sol",
  "compiler": {
    "name": "solc",
    "version": "0.8.11+commit.d7f03943.Emscripten.clang"
  },
  "schemaVersion": "3.4.5",
  "updatedAt": "2022-03-19T16:20:34.463Z",
  "devdoc": {
    "kind": "dev",
    "methods": {},
    "version": 1
  },
  "userdoc": {
    "kind": "user",
    "methods": {},
    "version": 1
  }
}