{
  "contractName": "Tweeter",
  "abi": [
    {
      "inputs": [
        {
          "internalType": "address",
          "name": "ensAddress",
          "type": "address"
        }
      ],
      "stateMutability": "nonpayable",
      "type": "constructor"
    },
    {
      "anonymous": false,
      "inputs": [
        {
          "indexed": false,
          "internalType": "uint256",
          "name": "id",
          "type": "uint256"
        },
        {
          "indexed": false,
          "internalType": "string",
          "name": "content",
          "type": "string"
        },
        {
          "indexed": true,
          "internalType": "address",
          "name": "from",
          "type": "address"
        },
        {
          "indexed": true,
          "internalType": "address",
          "name": "to",
          "type": "address"
        },
        {
          "indexed": false,
          "internalType": "uint256",
          "name": "createdAt",
          "type": "uint256"
        }
      ],
      "name": "MessageSent",
      "type": "event"
    },
    {
      "anonymous": false,
      "inputs": [
        {
          "indexed": false,
          "internalType": "uint256",
          "name": "id",
          "type": "uint256"
        },
        {
          "indexed": true,
          "internalType": "address",
          "name": "author",
          "type": "address"
        },
        {
          "indexed": false,
          "internalType": "string",
          "name": "content",
          "type": "string"
        },
        {
          "indexed": false,
          "internalType": "uint256",
          "name": "createdAt",
          "type": "uint256"
        }
      ],
      "name": "TweetSent",
      "type": "event"
    },
    {
      "inputs": [],
      "name": "ens",
      "outputs": [
        {
          "internalType": "contract ENS",
          "name": "",
          "type": "address"
        }
      ],
      "stateMutability": "view",
      "type": "function"
    },
    {
      "inputs": [
        {
          "internalType": "address",
          "name": "",
          "type": "address"
        },
        {
          "internalType": "uint256",
          "name": "",
          "type": "uint256"
        }
      ],
      "name": "following",
      "outputs": [
        {
          "internalType": "address",
          "name": "",
          "type": "address"
        }
      ],
      "stateMutability": "view",
      "type": "function"
    },
    {
      "inputs": [
        {
          "internalType": "bytes32",
          "name": "_node",
          "type": "bytes32"
        }
      ],
      "name": "resolve",
      "outputs": [
        {
          "internalType": "address",
          "name": "",
          "type": "address"
        }
      ],
      "stateMutability": "view",
      "type": "function"
    },
    {
      "inputs": [
        {
          "internalType": "address",
          "name": "_authorAddress",
          "type": "address"
        }
      ],
      "name": "reverseResolve",
      "outputs": [
        {
          "internalType": "string",
          "name": "",
          "type": "string"
        }
      ],
      "stateMutability": "pure",
      "type": "function"
    },
    {
      "inputs": [
        {
          "internalType": "string",
          "name": "_content",
          "type": "string"
        }
      ],
      "name": "tweet",
      "outputs": [],
      "stateMutability": "nonpayable",
      "type": "function"
    },
    {
      "inputs": [
        {
          "internalType": "address",
          "name": "_from",
          "type": "address"
        },
        {
          "internalType": "string",
          "name": "_content",
          "type": "string"
        }
      ],
      "name": "tweetFrom",
      "outputs": [],
      "stateMutability": "nonpayable",
      "type": "function"
    },
    {
      "inputs": [
        {
          "internalType": "string",
          "name": "_content",
          "type": "string"
        },
        {
          "internalType": "address",
          "name": "_to",
          "type": "address"
        }
      ],
      "name": "sendMessage",
      "outputs": [],
      "stateMutability": "nonpayable",
      "type": "function"
    },
    {
      "inputs": [
        {
          "internalType": "string",
          "name": "_content",
          "type": "string"
        },
        {
          "internalType": "address",
          "name": "_from",
          "type": "address"
        },
        {
          "internalType": "address",
          "name": "_to",
          "type": "address"
        }
      ],
      "name": "sendMessageFrom",
      "outputs": [],
      "stateMutability": "nonpayable",
      "type": "function"
    },
    {
      "inputs": [
        {
          "internalType": "address",
          "name": "_followed",
          "type": "address"
        }
      ],
      "name": "follow",
      "outputs": [],
      "stateMutability": "nonpayable",
      "type": "function"
    },
    {
      "inputs": [
        {
          "internalType": "address",
          "name": "_operator",
          "type": "address"
        }
      ],
      "name": "allow",
      "outputs": [],
      "stateMutability": "nonpayable",
      "type": "function"
    },
    {
      "inputs": [
        {
          "internalType": "address",
          "name": "_operator",
          "type": "address"
        }
      ],
      "name": "disallow",
      "outputs": [],
      "stateMutability": "nonpayable",
      "type": "function"
    },
    {
      "inputs": [
        {
          "internalType": "uint256",
          "name": "count",
          "type": "uint256"
        }
      ],
      "name": "getLatestTweets",
      "outputs": [
        {
          "components": [
            {
              "internalType": "uint256",
              "name": "id",
              "type": "uint256"
            },
            {
              "internalType": "address",
              "name": "authorAddress",
              "type": "address"
            },
            {
              "internalType": "string",
              "name": "authorName",
              "type": "string"
            },
            {
              "internalType": "string",
              "name": "content",
              "type": "string"
            },
            {
              "internalType": "uint256",
              "name": "createdAt",
              "type": "uint256"
            }
          ],
          "internalType": "struct Tweeter.Tweet[]",
          "name": "",
          "type": "tuple[]"
        }
      ],
      "stateMutability": "view",
      "type": "function"
    },
    {
      "inputs": [
        {
          "internalType": "address",
          "name": "_user",
          "type": "address"
        },
        {
          "internalType": "uint256",
          "name": "count",
          "type": "uint256"
        }
      ],
      "name": "getTweetsOf",
      "outputs": [
        {
          "components": [
            {
              "internalType": "uint256",
              "name": "id",
              "type": "uint256"
            },
            {
              "internalType": "address",
              "name": "authorAddress",
              "type": "address"
            },
            {
              "internalType": "string",
              "name": "authorName",
              "type": "string"
            },
            {
              "internalType": "string",
              "name": "content",
              "type": "string"
            },
            {
              "internalType": "uint256",
              "name": "createdAt",
              "type": "uint256"
            }
          ],
          "internalType": "struct Tweeter.Tweet[]",
          "name": "",
          "type": "tuple[]"
        }
      ],
      "stateMutability": "view",
      "type": "function"
    }
  ],
  "bytecode": "0x60806040523480156200001157600080fd5b506040516200204538038062002045833981810160405281019062000037919062000096565b80600760006101000a81548173ffffffffffffffffffffffffffffffffffffffff021916908373ffffffffffffffffffffffffffffffffffffffff1602179055505062000110565b6000815190506200009081620000f6565b92915050565b600060208284031215620000a957600080fd5b6000620000b9848285016200007f565b91505092915050565b6000620000cf82620000d6565b9050919050565b600073ffffffffffffffffffffffffffffffffffffffff82169050919050565b6200010181620000c2565b81146200010d57600080fd5b50565b611f2580620001206000396000f3fe608060405234801561001057600080fd5b50600436106100ec576000357c0100000000000000000000000000000000000000000000000000000000900480639139cda5116100a9578063c48d6d5e11610083578063c48d6d5e14610253578063c6bc463c1461026f578063fb46d4c51461028b578063ff9913e8146102a7576100ec565b80639139cda5146101d75780639af8b7aa14610207578063a9ed9cb814610237576100ec565b8063179a21e8146100f15780633f15457f1461010d5780634dbf27cc1461012b5780634dc0a687146101475780635b4d4214146101775780635c23bdf5146101a7575b600080fd5b61010b6004803603810190610106919061178a565b6102c3565b005b610115610318565b6040516101229190611b2f565b60405180910390f35b610145600480360381019061014091906115b5565b61033e565b005b610161600480360381019061015c91906117f6565b6103e1565b60405161016e9190611af2565b60405180910390f35b610191600480360381019061018c919061165f565b6106d9565b60405161019e9190611af2565b60405180910390f35b6101c160048036038101906101bc919061169b565b610a5f565b6040516101ce9190611ad7565b60405180910390f35b6101f160048036038101906101ec919061165f565b610bd8565b6040516101fe9190611ad7565b60405180910390f35b610221600480360381019061021c91906115b5565b610c26565b60405161022e9190611b4a565b60405180910390f35b610251600480360381019061024c91906115b5565b610c65565b005b61026d60048036038101906102689190611732565b610cfd565b005b61028960048036038101906102849190611607565b610d51565b005b6102a560048036038101906102a091906116ed565b610da4565b005b6102c160048036038101906102bc91906115b5565b610df6565b005b61031284848080601f016020809104026020016040519081016040528093929190818152602001838380828437600081840152601f19601f820116905080830192505050505050508383610e8e565b50505050565b600760009054906101000a900473ffffffffffffffffffffffffffffffffffffffff1681565b600360003373ffffffffffffffffffffffffffffffffffffffff1673ffffffffffffffffffffffffffffffffffffffff168152602001908152602001600020819080600181540180825580915050600190039060005260206000200160009091909190916101000a81548173ffffffffffffffffffffffffffffffffffffffff021916908373ffffffffffffffffffffffffffffffffffffffff16021790555050565b60606000821180156103f557506005548211155b610434576040517f08c379a000000000000000000000000000000000000000000000000000000000815260040161042b90611bac565b60405180910390fd5b60008267ffffffffffffffff811115610476577f4e487b7100000000000000000000000000000000000000000000000000000000600052604160045260246000fd5b6040519080825280602002602001820160405280156104af57816020015b61049c61141a565b8152602001906001900390816104945790505b509050600080846005546104c39190611cc6565b90505b6005548110156106ce57600080600083815260200190815260200160002090506040518060a00160405280826000015481526020018260010160009054906101000a900473ffffffffffffffffffffffffffffffffffffffff1673ffffffffffffffffffffffffffffffffffffffff16815260200182600201805461054a90611da9565b80601f016020809104026020016040519081016040528092919081815260200182805461057690611da9565b80156105c35780601f10610598576101008083540402835291602001916105c3565b820191906000526020600020905b8154815290600101906020018083116105a657829003601f168201915b505050505081526020018260030180546105dc90611da9565b80601f016020809104026020016040519081016040528092919081815260200182805461060890611da9565b80156106555780601f1061062a57610100808354040283529160200191610655565b820191906000526020600020905b81548152906001019060200180831161063857829003601f168201915b5050505050815260200182600401548152508484815181106106a0577f4e487b7100000000000000000000000000000000000000000000000000000000600052603260045260246000fd5b60200260200101819052506001836106b89190611c70565b92505080806106c690611ddb565b9150506104c6565b508192505050919050565b60606000600160008573ffffffffffffffffffffffffffffffffffffffff1673ffffffffffffffffffffffffffffffffffffffff1681526020019081526020016000209050600083118015610732575080805490508311155b610771576040517f08c379a000000000000000000000000000000000000000000000000000000000815260040161076890611b8c565b60405180910390fd5b60008367ffffffffffffffff8111156107b3577f4e487b7100000000000000000000000000000000000000000000000000000000600052604160045260246000fd5b6040519080825280602002602001820160405280156107ec57816020015b6107d961141a565b8152602001906001900390816107d15790505b5090506000808584805490506108029190611cc6565b90505b8380549050811015610a5257600080600086848154811061084f577f4e487b7100000000000000000000000000000000000000000000000000000000600052603260045260246000fd5b9060005260206000200154815260200190815260200160002090506040518060a00160405280826000015481526020018260010160009054906101000a900473ffffffffffffffffffffffffffffffffffffffff1673ffffffffffffffffffffffffffffffffffffffff1681526020018260020180546108ce90611da9565b80601f01602080910402602001604051908101604052809291908181526020018280546108fa90611da9565b80156109475780601f1061091c57610100808354040283529160200191610947565b820191906000526020600020905b81548152906001019060200180831161092a57829003601f168201915b5050505050815260200182600301805461096090611da9565b80601f016020809104026020016040519081016040528092919081815260200182805461098c90611da9565b80156109d95780601f106109ae576101008083540402835291602001916109d9565b820191906000526020600020905b8154815290600101906020018083116109bc57829003601f168201915b505050505081526020018260040154815250848481518110610a24577f4e487b7100000000000000000000000000000000000000000000000000000000600052603260045260246000fd5b6020026020010181905250600183610a3c9190611c70565b9250508080610a4a90611ddb565b915050610805565b5081935050505092915050565b600080600760009054906101000a900473ffffffffffffffffffffffffffffffffffffffff1673ffffffffffffffffffffffffffffffffffffffff16630178b8bf846040518263ffffffff167c0100000000000000000000000000000000000000000000000000000000028152600401610ad99190611b14565b60206040518083038186803b158015610af157600080fd5b505afa158015610b05573d6000803e3d6000fd5b505050506040513d601f19601f82011682018060405250810190610b2991906116c4565b90508073ffffffffffffffffffffffffffffffffffffffff16633b3b57de846040518263ffffffff167c0100000000000000000000000000000000000000000000000000000000028152600401610b809190611b14565b60206040518083038186803b158015610b9857600080fd5b505afa158015610bac573d6000803e3d6000fd5b505050506040513d601f19601f82011682018060405250810190610bd091906115de565b915050919050565b60036020528160005260406000208181548110610bf457600080fd5b906000526020600020016000915091509054906101000a900473ffffffffffffffffffffffffffffffffffffffff1681565b60606040518060400160405280600b81526020017f617574686f72206e616d650000000000000000000000000000000000000000008152509050919050565b6000600460003373ffffffffffffffffffffffffffffffffffffffff1673ffffffffffffffffffffffffffffffffffffffff16815260200190815260200160002060008373ffffffffffffffffffffffffffffffffffffffff1673ffffffffffffffffffffffffffffffffffffffff16815260200190815260200160002060006101000a81548160ff02191690831515021790555050565b610d4c83838080601f016020809104026020016040519081016040528093929190818152602001838380828437600081840152601f19601f820116905080830192505050505050503383610e8e565b505050565b610d9f8383838080601f016020809104026020016040519081016040528093929190818152602001838380828437600081840152601f19601f82011690508083019250505050505050611177565b505050565b610df23383838080601f016020809104026020016040519081016040528093929190818152602001838380828437600081840152601f19601f82011690508083019250505050505050611177565b5050565b6001600460003373ffffffffffffffffffffffffffffffffffffffff1673ffffffffffffffffffffffffffffffffffffffff16815260200190815260200160002060008373ffffffffffffffffffffffffffffffffffffffff1673ffffffffffffffffffffffffffffffffffffffff16815260200190815260200160002060006101000a81548160ff02191690831515021790555050565b8160011515600460008373ffffffffffffffffffffffffffffffffffffffff1673ffffffffffffffffffffffffffffffffffffffff16815260200190815260200160002060003373ffffffffffffffffffffffffffffffffffffffff1673ffffffffffffffffffffffffffffffffffffffff16815260200190815260200160002060009054906101000a900460ff16151514610f5f576040517f08c379a0000000000000000000000000000000000000000000000000000000008152600401610f5690611b6c565b60405180910390fd5b60008273ffffffffffffffffffffffffffffffffffffffff168473ffffffffffffffffffffffffffffffffffffffff16610f999190611c70565b9050600260008281526020019081526020016000206040518060a0016040528060065481526020018781526020018673ffffffffffffffffffffffffffffffffffffffff1681526020018573ffffffffffffffffffffffffffffffffffffffff16815260200142815250908060018154018082558091505060019003906000526020600020906005020160009091909190915060008201518160000155602082015181600101908051906020019061105292919061145f565b5060408201518160020160006101000a81548173ffffffffffffffffffffffffffffffffffffffff021916908373ffffffffffffffffffffffffffffffffffffffff16021790555060608201518160030160006101000a81548173ffffffffffffffffffffffffffffffffffffffff021916908373ffffffffffffffffffffffffffffffffffffffff1602179055506080820151816004015550508273ffffffffffffffffffffffffffffffffffffffff168473ffffffffffffffffffffffffffffffffffffffff167f053227a5bdcc96607ea58ea40dd04c9394ddebceb1cd539ad1289d8b074bc4eb600654884260405161115093929190611bcc565b60405180910390a36006600081548092919061116b90611ddb565b91905055505050505050565b8160011515600460008373ffffffffffffffffffffffffffffffffffffffff1673ffffffffffffffffffffffffffffffffffffffff16815260200190815260200160002060003373ffffffffffffffffffffffffffffffffffffffff1673ffffffffffffffffffffffffffffffffffffffff16815260200190815260200160002060009054906101000a900460ff16151514611248576040517f08c379a000000000000000000000000000000000000000000000000000000000815260040161123f90611b6c565b60405180910390fd5b600061125384610c26565b90506040518060a0016040528060055481526020018573ffffffffffffffffffffffffffffffffffffffff1681526020018281526020018481526020014281525060008060055481526020019081526020016000206000820151816000015560208201518160010160006101000a81548173ffffffffffffffffffffffffffffffffffffffff021916908373ffffffffffffffffffffffffffffffffffffffff160217905550604082015181600201908051906020019061131592919061145f565b50606082015181600301908051906020019061133292919061145f565b5060808201518160040155905050600160008573ffffffffffffffffffffffffffffffffffffffff1673ffffffffffffffffffffffffffffffffffffffff16815260200190815260200160002060055490806001815401808255809150506001900390600052602060002001600090919091909150558373ffffffffffffffffffffffffffffffffffffffff167f8d6b17b300471dd2e4fef05e2e70f50c236372b9a4aaf37cdb52644d99bc21a760055485426040516113f493929190611bcc565b60405180910390a26005600081548092919061140f90611ddb565b919050555050505050565b6040518060a0016040528060008152602001600073ffffffffffffffffffffffffffffffffffffffff1681526020016060815260200160608152602001600081525090565b82805461146b90611da9565b90600052602060002090601f01602090048101928261148d57600085556114d4565b82601f106114a657805160ff19168380011785556114d4565b828001600101855582156114d4579182015b828111156114d35782518255916020019190600101906114b8565b5b5090506114e191906114e5565b5090565b5b808211156114fe5760008160009055506001016114e6565b5090565b60008135905061151181611e93565b92915050565b60008151905061152681611e93565b92915050565b60008135905061153b81611eaa565b92915050565b60008151905061155081611ec1565b92915050565b60008083601f84011261156857600080fd5b8235905067ffffffffffffffff81111561158157600080fd5b60208301915083600182028301111561159957600080fd5b9250929050565b6000813590506115af81611ed8565b92915050565b6000602082840312156115c757600080fd5b60006115d584828501611502565b91505092915050565b6000602082840312156115f057600080fd5b60006115fe84828501611517565b91505092915050565b60008060006040848603121561161c57600080fd5b600061162a86828701611502565b935050602084013567ffffffffffffffff81111561164757600080fd5b61165386828701611556565b92509250509250925092565b6000806040838503121561167257600080fd5b600061168085828601611502565b9250506020611691858286016115a0565b9150509250929050565b6000602082840312156116ad57600080fd5b60006116bb8482850161152c565b91505092915050565b6000602082840312156116d657600080fd5b60006116e484828501611541565b91505092915050565b6000806020838503121561170057600080fd5b600083013567ffffffffffffffff81111561171a57600080fd5b61172685828601611556565b92509250509250929050565b60008060006040848603121561174757600080fd5b600084013567ffffffffffffffff81111561176157600080fd5b61176d86828701611556565b9350935050602061178086828701611502565b9150509250925092565b600080600080606085870312156117a057600080fd5b600085013567ffffffffffffffff8111156117ba57600080fd5b6117c687828801611556565b945094505060206117d987828801611502565b92505060406117ea87828801611502565b91505092959194509250565b60006020828403121561180857600080fd5b6000611816848285016115a0565b91505092915050565b600061182b8383611a3c565b905092915050565b61183c81611cfa565b82525050565b61184b81611cfa565b82525050565b600061185c82611c1a565b6118668185611c3d565b93508360208202850161187885611c0a565b8060005b858110156118b45784840389528151611895858261181f565b94506118a083611c30565b925060208a0199505060018101905061187c565b50829750879550505050505092915050565b6118cf81611d0c565b82525050565b6118de81611d52565b82525050565b60006118ef82611c25565b6118f98185611c4e565b9350611909818560208601611d76565b61191281611e82565b840191505092915050565b600061192882611c25565b6119328185611c5f565b9350611942818560208601611d76565b61194b81611e82565b840191505092915050565b6000611963601783611c5f565b91507f4f70657261746f72206e6f7420617574686f72697a65640000000000000000006000830152602082019050919050565b60006119a3602083611c5f565b91507f546f6f20666577206f72206d616e792074776565747320746f2072657475726e6000830152602082019050919050565b60006119e3602783611c5f565b91507f4e6f7420656e6f756768206f7220746f6f206d616e792074776565747320746f60008301527f2072657475726e000000000000000000000000000000000000000000000000006020830152604082019050919050565b600060a083016000830151611a546000860182611ab9565b506020830151611a676020860182611833565b5060408301518482036040860152611a7f82826118e4565b91505060608301518482036060860152611a9982826118e4565b9150506080830151611aae6080860182611ab9565b508091505092915050565b611ac281611d48565b82525050565b611ad181611d48565b82525050565b6000602082019050611aec6000830184611842565b92915050565b60006020820190508181036000830152611b0c8184611851565b905092915050565b6000602082019050611b2960008301846118c6565b92915050565b6000602082019050611b4460008301846118d5565b92915050565b60006020820190508181036000830152611b64818461191d565b905092915050565b60006020820190508181036000830152611b8581611956565b9050919050565b60006020820190508181036000830152611ba581611996565b9050919050565b60006020820190508181036000830152611bc5816119d6565b9050919050565b6000606082019050611be16000830186611ac8565b8181036020830152611bf3818561191d565b9050611c026040830184611ac8565b949350505050565b6000819050602082019050919050565b600081519050919050565b600081519050919050565b6000602082019050919050565b600082825260208201905092915050565b600082825260208201905092915050565b600082825260208201905092915050565b6000611c7b82611d48565b9150611c8683611d48565b9250827fffffffffffffffffffffffffffffffffffffffffffffffffffffffffffffffff03821115611cbb57611cba611e24565b5b828201905092915050565b6000611cd182611d48565b9150611cdc83611d48565b925082821015611cef57611cee611e24565b5b828203905092915050565b6000611d0582611d28565b9050919050565b6000819050919050565b6000611d2182611cfa565b9050919050565b600073ffffffffffffffffffffffffffffffffffffffff82169050919050565b6000819050919050565b6000611d5d82611d64565b9050919050565b6000611d6f82611d28565b9050919050565b60005b83811015611d94578082015181840152602081019050611d79565b83811115611da3576000848401525b50505050565b60006002820490506001821680611dc157607f821691505b60208210811415611dd557611dd4611e53565b5b50919050565b6000611de682611d48565b91507fffffffffffffffffffffffffffffffffffffffffffffffffffffffffffffffff821415611e1957611e18611e24565b5b600182019050919050565b7f4e487b7100000000000000000000000000000000000000000000000000000000600052601160045260246000fd5b7f4e487b7100000000000000000000000000000000000000000000000000000000600052602260045260246000fd5b6000601f19601f8301169050919050565b611e9c81611cfa565b8114611ea757600080fd5b50565b611eb381611d0c565b8114611ebe57600080fd5b50565b611eca81611d16565b8114611ed557600080fd5b50565b611ee181611d48565b8114611eec57600080fd5b5056fea26469706673582212202f41f6f4d257ca6001d285d2b85f7aeaf932862e4755bceccdc44a49e229642064736f6c63430008000033",
  "immutableReferences": {},
  "source": "// SPDX-License-Identifier: MIT\npragma solidity ^0.8.0;\n\nabstract contract Resolver {\n    function addr(bytes32 node) external view virtual returns (address);\n}\n\nabstract contract ENS {\n    function resolver(bytes32 node) external view virtual returns (Resolver);\n}\n\ncontract Tweeter {\n    struct Tweet {\n        uint256 id;\n        address authorAddress;\n        string authorName;\n        string content;\n        uint256 createdAt;\n    }\n\n    struct Message {\n        uint256 id;\n        string content;\n        address from;\n        address to;\n        uint256 createdAt;\n    }\n\n    mapping(uint256 => Tweet) private tweets;\n    mapping(address => uint256[]) private tweetsOf;\n    mapping(uint256 => Message[]) private conversations;\n    mapping(address => address[]) public following;\n    mapping(address => mapping(address => bool)) private operators;\n    uint256 private nextTweetId;\n    uint256 private nextMessageId;\n    ENS public ens;\n\n    event TweetSent(\n        uint256 id,\n        address indexed author,\n        string content,\n        uint256 createdAt\n    );\n\n    event MessageSent(\n        uint256 id,\n        string content,\n        address indexed from,\n        address indexed to,\n        uint256 createdAt\n    );\n\n    constructor(address ensAddress) {\n        ens = ENS(ensAddress);\n    }\n\n    function resolve(bytes32 _node) public view returns (address) {\n        Resolver resolver = ens.resolver(_node);\n        return resolver.addr(_node);\n    }\n\n    function reverseResolve(address _authorAddress)\n        public\n        pure\n        returns (string memory)\n    {\n        return \"author name\";\n    }\n\n    function tweet(string calldata _content) external {\n        _tweet(msg.sender, _content);\n    }\n\n    function tweetFrom(address _from, string calldata _content) external {\n        _tweet(_from, _content);\n    }\n\n    function sendMessage(string calldata _content, address _to) external {\n        _sendMessage(_content, msg.sender, _to);\n    }\n\n    function sendMessageFrom(\n        string calldata _content,\n        address _from,\n        address _to\n    ) external {\n        _sendMessage(_content, _from, _to);\n    }\n\n    function follow(address _followed) external {\n        following[msg.sender].push(_followed);\n    }\n\n    function allow(address _operator) external {\n        operators[msg.sender][_operator] = true;\n    }\n\n    function disallow(address _operator) external {\n        operators[msg.sender][_operator] = false;\n    }\n\n    function getLatestTweets(uint256 count)\n        external\n        view\n        returns (Tweet[] memory)\n    {\n        require(\n            count > 0 && count <= nextTweetId,\n            \"Not enough or too many tweets to return\"\n        );\n        Tweet[] memory _tweets = new Tweet[](count);\n        uint256 j;\n        for (uint256 i = nextTweetId - count; i < nextTweetId; i++) {\n            Tweet storage _tweet = tweets[i];\n            _tweets[j] = Tweet(\n                _tweet.id,\n                _tweet.authorAddress,\n                _tweet.authorName,\n                _tweet.content,\n                _tweet.createdAt\n            );\n            j += 1;\n        }\n        return _tweets;\n    }\n\n    function getTweetsOf(address _user, uint256 count)\n        external\n        view\n        returns (Tweet[] memory)\n    {\n        uint256[] storage tweetIds = tweetsOf[_user];\n        require(\n            count > 0 && count <= tweetIds.length,\n            \"Too few or many tweets to return\"\n        );\n        Tweet[] memory _tweets = new Tweet[](count);\n        uint256 j;\n        for (uint256 i = tweetIds.length - count; i < tweetIds.length; i++) {\n            Tweet storage _tweet = tweets[tweetIds[i]];\n            _tweets[j] = Tweet(\n                _tweet.id,\n                _tweet.authorAddress,\n                _tweet.authorName,\n                _tweet.content,\n                _tweet.createdAt\n            );\n            j += 1;\n        }\n        return _tweets;\n    }\n\n    function _tweet(address _authorAddress, string memory _content)\n        internal\n        canOperate(_authorAddress)\n    {\n        string memory authorName = reverseResolve(_authorAddress);\n        tweets[nextTweetId] = Tweet(\n            nextTweetId,\n            _authorAddress,\n            authorName,\n            _content,\n            block.timestamp\n        );\n        tweetsOf[_authorAddress].push(nextTweetId);\n        emit TweetSent(nextTweetId, _authorAddress, _content, block.timestamp);\n        nextTweetId++;\n    }\n\n    function _sendMessage(\n        string memory _content,\n        address _from,\n        address _to\n    ) internal canOperate(_from) {\n        uint256 conversationId = uint256(uint160(_from)) +\n            uint256(uint160(_to));\n        conversations[conversationId].push(\n            Message(nextMessageId, _content, _from, _to, block.timestamp)\n        );\n        emit MessageSent(nextMessageId, _content, _from, _to, block.timestamp);\n        nextMessageId++;\n    }\n\n    modifier canOperate(address _from) {\n        require(\n            operators[_from][msg.sender] == true,\n            \"Operator not authorized\"\n        );\n        _;\n    }\n}\n",
  "sourcePath": "/Users/jasonha/Desktop/demos/smart_contracts/tweeter/smart_contract/contracts/Tweeter.sol",
  "compiler": {
    "name": "solc",
    "version": "0.8.0+commit.c7dfd78e.Emscripten.clang"
  },
  "schemaVersion": "3.4.5",
  "updatedAt": "2022-03-19T16:28:17.081Z",
  "devdoc": {
    "kind": "dev",
    "methods": {},
    "version": 1
  },
  "userdoc": {
    "kind": "user",
    "methods": {},
    "version": 1
  }
}